{
  "contractName": "NFT",
  "abi": [
    {
      "inputs": [
        {
          "internalType": "string",
          "name": "_tokenName",
          "type": "string"
        },
        {
          "internalType": "string",
          "name": "_tokenSymbol",
          "type": "string"
        },
        {
          "internalType": "uint256",
          "name": "_cost",
          "type": "uint256"
        },
        {
          "internalType": "uint256",
          "name": "_maxSupply",
          "type": "uint256"
        },
        {
          "internalType": "uint256",
          "name": "_maxMintAmountPerTx",
          "type": "uint256"
        },
        {
          "internalType": "string",
          "name": "_hiddenMetadataUri",
          "type": "string"
        }
      ],
      "stateMutability": "nonpayable",
      "type": "constructor"
    },
    {
      "inputs": [],
      "name": "ApprovalCallerNotOwnerNorApproved",
      "type": "error"
    },
    {
      "inputs": [],
      "name": "ApprovalQueryForNonexistentToken",
      "type": "error"
    },
    {
      "inputs": [],
      "name": "ApprovalToCurrentOwner",
      "type": "error"
    },
    {
      "inputs": [],
      "name": "ApproveToCaller",
      "type": "error"
    },
    {
      "inputs": [],
      "name": "BalanceQueryForZeroAddress",
      "type": "error"
    },
    {
      "inputs": [],
      "name": "MintToZeroAddress",
      "type": "error"
    },
    {
      "inputs": [],
      "name": "MintZeroQuantity",
      "type": "error"
    },
    {
      "inputs": [],
      "name": "OwnerQueryForNonexistentToken",
      "type": "error"
    },
    {
      "inputs": [],
      "name": "TransferCallerNotOwnerNorApproved",
      "type": "error"
    },
    {
      "inputs": [],
      "name": "TransferFromIncorrectOwner",
      "type": "error"
    },
    {
      "inputs": [],
      "name": "TransferToNonERC721ReceiverImplementer",
      "type": "error"
    },
    {
      "inputs": [],
      "name": "TransferToZeroAddress",
      "type": "error"
    },
    {
      "inputs": [],
      "name": "URIQueryForNonexistentToken",
      "type": "error"
    },
    {
      "anonymous": false,
      "inputs": [
        {
          "indexed": true,
          "internalType": "address",
          "name": "owner",
          "type": "address"
        },
        {
          "indexed": true,
          "internalType": "address",
          "name": "approved",
          "type": "address"
        },
        {
          "indexed": true,
          "internalType": "uint256",
          "name": "tokenId",
          "type": "uint256"
        }
      ],
      "name": "Approval",
      "type": "event"
    },
    {
      "anonymous": false,
      "inputs": [
        {
          "indexed": true,
          "internalType": "address",
          "name": "owner",
          "type": "address"
        },
        {
          "indexed": true,
          "internalType": "address",
          "name": "operator",
          "type": "address"
        },
        {
          "indexed": false,
          "internalType": "bool",
          "name": "approved",
          "type": "bool"
        }
      ],
      "name": "ApprovalForAll",
      "type": "event"
    },
    {
      "anonymous": false,
      "inputs": [
        {
          "indexed": true,
          "internalType": "address",
          "name": "previousOwner",
          "type": "address"
        },
        {
          "indexed": true,
          "internalType": "address",
          "name": "newOwner",
          "type": "address"
        }
      ],
      "name": "OwnershipTransferred",
      "type": "event"
    },
    {
      "anonymous": false,
      "inputs": [
        {
          "indexed": true,
          "internalType": "address",
          "name": "from",
          "type": "address"
        },
        {
          "indexed": true,
          "internalType": "address",
          "name": "to",
          "type": "address"
        },
        {
          "indexed": true,
          "internalType": "uint256",
          "name": "tokenId",
          "type": "uint256"
        }
      ],
      "name": "Transfer",
      "type": "event"
    },
    {
      "inputs": [
        {
          "internalType": "address",
          "name": "to",
          "type": "address"
        },
        {
          "internalType": "uint256",
          "name": "tokenId",
          "type": "uint256"
        }
      ],
      "name": "approve",
      "outputs": [],
      "stateMutability": "nonpayable",
      "type": "function"
    },
    {
      "inputs": [
        {
          "internalType": "address",
          "name": "owner",
          "type": "address"
        }
      ],
      "name": "balanceOf",
      "outputs": [
        {
          "internalType": "uint256",
          "name": "",
          "type": "uint256"
        }
      ],
      "stateMutability": "view",
      "type": "function"
    },
    {
      "inputs": [],
      "name": "cost",
      "outputs": [
        {
          "internalType": "uint256",
          "name": "",
          "type": "uint256"
        }
      ],
      "stateMutability": "view",
      "type": "function"
    },
    {
      "inputs": [
        {
          "internalType": "uint256",
          "name": "tokenId",
          "type": "uint256"
        }
      ],
      "name": "getApproved",
      "outputs": [
        {
          "internalType": "address",
          "name": "",
          "type": "address"
        }
      ],
      "stateMutability": "view",
      "type": "function"
    },
    {
      "inputs": [],
      "name": "hiddenMetadataUri",
      "outputs": [
        {
          "internalType": "string",
          "name": "",
          "type": "string"
        }
      ],
      "stateMutability": "view",
      "type": "function"
    },
    {
      "inputs": [
        {
          "internalType": "address",
          "name": "owner",
          "type": "address"
        },
        {
          "internalType": "address",
          "name": "operator",
          "type": "address"
        }
      ],
      "name": "isApprovedForAll",
      "outputs": [
        {
          "internalType": "bool",
          "name": "",
          "type": "bool"
        }
      ],
      "stateMutability": "view",
      "type": "function"
    },
    {
      "inputs": [],
      "name": "maxMintAmountPerTx",
      "outputs": [
        {
          "internalType": "uint256",
          "name": "",
          "type": "uint256"
        }
      ],
      "stateMutability": "view",
      "type": "function"
    },
    {
      "inputs": [],
      "name": "maxSupply",
      "outputs": [
        {
          "internalType": "uint256",
          "name": "",
          "type": "uint256"
        }
      ],
      "stateMutability": "view",
      "type": "function"
    },
    {
      "inputs": [],
      "name": "merkleRoot",
      "outputs": [
        {
          "internalType": "bytes32",
          "name": "",
          "type": "bytes32"
        }
      ],
      "stateMutability": "view",
      "type": "function"
    },
    {
      "inputs": [],
      "name": "name",
      "outputs": [
        {
          "internalType": "string",
          "name": "",
          "type": "string"
        }
      ],
      "stateMutability": "view",
      "type": "function"
    },
    {
      "inputs": [],
      "name": "owner",
      "outputs": [
        {
          "internalType": "address",
          "name": "",
          "type": "address"
        }
      ],
      "stateMutability": "view",
      "type": "function"
    },
    {
      "inputs": [
        {
          "internalType": "uint256",
          "name": "tokenId",
          "type": "uint256"
        }
      ],
      "name": "ownerOf",
      "outputs": [
        {
          "internalType": "address",
          "name": "",
          "type": "address"
        }
      ],
      "stateMutability": "view",
      "type": "function"
    },
    {
      "inputs": [],
      "name": "paused",
      "outputs": [
        {
          "internalType": "bool",
          "name": "",
          "type": "bool"
        }
      ],
      "stateMutability": "view",
      "type": "function"
    },
    {
      "inputs": [],
      "name": "renounceOwnership",
      "outputs": [],
      "stateMutability": "nonpayable",
      "type": "function"
    },
    {
      "inputs": [],
      "name": "revealed",
      "outputs": [
        {
          "internalType": "bool",
          "name": "",
          "type": "bool"
        }
      ],
      "stateMutability": "view",
      "type": "function"
    },
    {
      "inputs": [
        {
          "internalType": "address",
          "name": "from",
          "type": "address"
        },
        {
          "internalType": "address",
          "name": "to",
          "type": "address"
        },
        {
          "internalType": "uint256",
          "name": "tokenId",
          "type": "uint256"
        }
      ],
      "name": "safeTransferFrom",
      "outputs": [],
      "stateMutability": "nonpayable",
      "type": "function"
    },
    {
      "inputs": [
        {
          "internalType": "address",
          "name": "from",
          "type": "address"
        },
        {
          "internalType": "address",
          "name": "to",
          "type": "address"
        },
        {
          "internalType": "uint256",
          "name": "tokenId",
          "type": "uint256"
        },
        {
          "internalType": "bytes",
          "name": "_data",
          "type": "bytes"
        }
      ],
      "name": "safeTransferFrom",
      "outputs": [],
      "stateMutability": "nonpayable",
      "type": "function"
    },
    {
      "inputs": [
        {
          "internalType": "address",
          "name": "operator",
          "type": "address"
        },
        {
          "internalType": "bool",
          "name": "approved",
          "type": "bool"
        }
      ],
      "name": "setApprovalForAll",
      "outputs": [],
      "stateMutability": "nonpayable",
      "type": "function"
    },
    {
      "inputs": [
        {
          "internalType": "bytes4",
          "name": "interfaceId",
          "type": "bytes4"
        }
      ],
      "name": "supportsInterface",
      "outputs": [
        {
          "internalType": "bool",
          "name": "",
          "type": "bool"
        }
      ],
      "stateMutability": "view",
      "type": "function"
    },
    {
      "inputs": [],
      "name": "symbol",
      "outputs": [
        {
          "internalType": "string",
          "name": "",
          "type": "string"
        }
      ],
      "stateMutability": "view",
      "type": "function"
    },
    {
      "inputs": [],
      "name": "totalSupply",
      "outputs": [
        {
          "internalType": "uint256",
          "name": "",
          "type": "uint256"
        }
      ],
      "stateMutability": "view",
      "type": "function"
    },
    {
      "inputs": [
        {
          "internalType": "address",
          "name": "from",
          "type": "address"
        },
        {
          "internalType": "address",
          "name": "to",
          "type": "address"
        },
        {
          "internalType": "uint256",
          "name": "tokenId",
          "type": "uint256"
        }
      ],
      "name": "transferFrom",
      "outputs": [],
      "stateMutability": "nonpayable",
      "type": "function"
    },
    {
      "inputs": [
        {
          "internalType": "address",
          "name": "newOwner",
          "type": "address"
        }
      ],
      "name": "transferOwnership",
      "outputs": [],
      "stateMutability": "nonpayable",
      "type": "function"
    },
    {
      "inputs": [],
      "name": "uriPrefix",
      "outputs": [
        {
          "internalType": "string",
          "name": "",
          "type": "string"
        }
      ],
      "stateMutability": "view",
      "type": "function"
    },
    {
      "inputs": [],
      "name": "uriSuffix",
      "outputs": [
        {
          "internalType": "string",
          "name": "",
          "type": "string"
        }
      ],
      "stateMutability": "view",
      "type": "function"
    },
    {
      "inputs": [
        {
          "internalType": "address",
          "name": "",
          "type": "address"
        }
      ],
      "name": "whitelistClaimed",
      "outputs": [
        {
          "internalType": "bool",
          "name": "",
          "type": "bool"
        }
      ],
      "stateMutability": "view",
      "type": "function"
    },
    {
      "inputs": [],
      "name": "whitelistMintEnabled",
      "outputs": [
        {
          "internalType": "bool",
          "name": "",
          "type": "bool"
        }
      ],
      "stateMutability": "view",
      "type": "function"
    },
    {
      "inputs": [
        {
          "internalType": "uint256",
          "name": "_mintAmount",
          "type": "uint256"
        },
        {
          "internalType": "bytes32[]",
          "name": "_merkleProof",
          "type": "bytes32[]"
        }
      ],
      "name": "whitelistMint",
      "outputs": [],
      "stateMutability": "payable",
      "type": "function"
    },
    {
      "inputs": [
        {
          "internalType": "uint256",
          "name": "_mintAmount",
          "type": "uint256"
        }
      ],
      "name": "mint",
      "outputs": [],
      "stateMutability": "payable",
      "type": "function"
    },
    {
      "inputs": [
        {
          "internalType": "uint256",
          "name": "_mintAmount",
          "type": "uint256"
        },
        {
          "internalType": "address",
          "name": "_receiver",
          "type": "address"
        }
      ],
      "name": "mintForAddress",
      "outputs": [],
      "stateMutability": "nonpayable",
      "type": "function"
    },
    {
      "inputs": [
        {
          "internalType": "address",
          "name": "_owner",
          "type": "address"
        }
      ],
      "name": "walletOfOwner",
      "outputs": [
        {
          "internalType": "uint256[]",
          "name": "",
          "type": "uint256[]"
        }
      ],
      "stateMutability": "view",
      "type": "function"
    },
    {
      "inputs": [
        {
          "internalType": "uint256",
          "name": "_tokenId",
          "type": "uint256"
        }
      ],
      "name": "tokenURI",
      "outputs": [
        {
          "internalType": "string",
          "name": "",
          "type": "string"
        }
      ],
      "stateMutability": "view",
      "type": "function"
    },
    {
      "inputs": [
        {
          "internalType": "bool",
          "name": "_state",
          "type": "bool"
        }
      ],
      "name": "setRevealed",
      "outputs": [],
      "stateMutability": "nonpayable",
      "type": "function"
    },
    {
      "inputs": [
        {
          "internalType": "uint256",
          "name": "_cost",
          "type": "uint256"
        }
      ],
      "name": "setCost",
      "outputs": [],
      "stateMutability": "nonpayable",
      "type": "function"
    },
    {
      "inputs": [
        {
          "internalType": "uint256",
          "name": "_maxMintAmountPerTx",
          "type": "uint256"
        }
      ],
      "name": "setMaxMintAmountPerTx",
      "outputs": [],
      "stateMutability": "nonpayable",
      "type": "function"
    },
    {
      "inputs": [
        {
          "internalType": "string",
          "name": "_hiddenMetadataUri",
          "type": "string"
        }
      ],
      "name": "setHiddenMetadataUri",
      "outputs": [],
      "stateMutability": "nonpayable",
      "type": "function"
    },
    {
      "inputs": [
        {
          "internalType": "string",
          "name": "_uriPrefix",
          "type": "string"
        }
      ],
      "name": "setUriPrefix",
      "outputs": [],
      "stateMutability": "nonpayable",
      "type": "function"
    },
    {
      "inputs": [
        {
          "internalType": "string",
          "name": "_uriSuffix",
          "type": "string"
        }
      ],
      "name": "setUriSuffix",
      "outputs": [],
      "stateMutability": "nonpayable",
      "type": "function"
    },
    {
      "inputs": [
        {
          "internalType": "bool",
          "name": "_state",
          "type": "bool"
        }
      ],
      "name": "setPaused",
      "outputs": [],
      "stateMutability": "nonpayable",
      "type": "function"
    },
    {
      "inputs": [
        {
          "internalType": "bytes32",
          "name": "_merkleRoot",
          "type": "bytes32"
        }
      ],
      "name": "setMerkleRoot",
      "outputs": [],
      "stateMutability": "nonpayable",
      "type": "function"
    },
    {
      "inputs": [
        {
          "internalType": "bool",
          "name": "_state",
          "type": "bool"
        }
      ],
      "name": "setWhitelistMintEnabled",
      "outputs": [],
      "stateMutability": "nonpayable",
      "type": "function"
    },
    {
      "inputs": [],
      "name": "withdraw",
      "outputs": [],
      "stateMutability": "nonpayable",
      "type": "function"
    }
  ],
  "bytecode": "0x608060405260405180602001604052806000815250600c90805190602001906200002b92919062000470565b5060405180602001604052806000815250600d90805190602001906200005392919062000470565b506001601260006101000a81548160ff0219169083151502179055506000601260016101000a81548160ff0219169083151502179055506000601260026101000a81548160ff021916908315150217905550348015620000b257600080fd5b5060405162005388380380620053888339818101604052810190620000d89190620006f8565b85858160029080519060200190620000f292919062000470565b5080600390805190602001906200010b92919062000470565b506200011c6200019260201b60201c565b600081905550505062000144620001386200019b60201b60201c565b620001a360201b60201c565b60016009819055506200015d846200026960201b60201c565b8260108190555062000175826200030260201b60201c565b62000186816200039b60201b60201c565b505050505050620008d8565b60006001905090565b600033905090565b6000600860009054906101000a900473ffffffffffffffffffffffffffffffffffffffff16905081600860006101000a81548173ffffffffffffffffffffffffffffffffffffffff021916908373ffffffffffffffffffffffffffffffffffffffff1602179055508173ffffffffffffffffffffffffffffffffffffffff168173ffffffffffffffffffffffffffffffffffffffff167f8be0079c531659141344cd1fd0a4f28419497f9722a3daafe3b4186f6b6457e060405160405180910390a35050565b620002796200019b60201b60201c565b73ffffffffffffffffffffffffffffffffffffffff166200029f6200044660201b60201c565b73ffffffffffffffffffffffffffffffffffffffff1614620002f8576040517f08c379a0000000000000000000000000000000000000000000000000000000008152600401620002ef9062000852565b60405180910390fd5b80600f8190555050565b620003126200019b60201b60201c565b73ffffffffffffffffffffffffffffffffffffffff16620003386200044660201b60201c565b73ffffffffffffffffffffffffffffffffffffffff161462000391576040517f08c379a0000000000000000000000000000000000000000000000000000000008152600401620003889062000852565b60405180910390fd5b8060118190555050565b620003ab6200019b60201b60201c565b73ffffffffffffffffffffffffffffffffffffffff16620003d16200044660201b60201c565b73ffffffffffffffffffffffffffffffffffffffff16146200042a576040517f08c379a0000000000000000000000000000000000000000000000000000000008152600401620004219062000852565b60405180910390fd5b80600e90805190602001906200044292919062000470565b5050565b6000600860009054906101000a900473ffffffffffffffffffffffffffffffffffffffff16905090565b8280546200047e90620008a3565b90600052602060002090601f016020900481019282620004a25760008555620004ee565b82601f10620004bd57805160ff1916838001178555620004ee565b82800160010185558215620004ee579182015b82811115620004ed578251825591602001919060010190620004d0565b5b509050620004fd919062000501565b5090565b5b808211156200051c57600081600090555060010162000502565b5090565b6000604051905090565b600080fd5b600080fd5b600080fd5b600080fd5b6000601f19601f8301169050919050565b7f4e487b7100000000000000000000000000000000000000000000000000000000600052604160045260246000fd5b62000589826200053e565b810181811067ffffffffffffffff82111715620005ab57620005aa6200054f565b5b80604052505050565b6000620005c062000520565b9050620005ce82826200057e565b919050565b600067ffffffffffffffff821115620005f157620005f06200054f565b5b620005fc826200053e565b9050602081019050919050565b60005b83811015620006295780820151818401526020810190506200060c565b8381111562000639576000848401525b50505050565b6000620006566200065084620005d3565b620005b4565b90508281526020810184848401111562000675576200067462000539565b5b6200068284828562000609565b509392505050565b600082601f830112620006a257620006a162000534565b5b8151620006b48482602086016200063f565b91505092915050565b6000819050919050565b620006d281620006bd565b8114620006de57600080fd5b50565b600081519050620006f281620006c7565b92915050565b60008060008060008060c087890312156200071857620007176200052a565b5b600087015167ffffffffffffffff8111156200073957620007386200052f565b5b6200074789828a016200068a565b965050602087015167ffffffffffffffff8111156200076b576200076a6200052f565b5b6200077989828a016200068a565b95505060406200078c89828a01620006e1565b94505060606200079f89828a01620006e1565b9350506080620007b289828a01620006e1565b92505060a087015167ffffffffffffffff811115620007d657620007d56200052f565b5b620007e489828a016200068a565b9150509295509295509295565b600082825260208201905092915050565b7f4f776e61626c653a2063616c6c6572206973206e6f7420746865206f776e6572600082015250565b60006200083a602083620007f1565b9150620008478262000802565b602082019050919050565b600060208201905081810360008301526200086d816200082b565b9050919050565b7f4e487b7100000000000000000000000000000000000000000000000000000000600052602260045260246000fd5b60006002820490506001821680620008bc57607f821691505b602082108103620008d257620008d162000874565b5b50919050565b614aa080620008e86000396000f3fe6080604052600436106102515760003560e01c806370a0823111610139578063b071401b116100b6578063d5abeb011161007a578063d5abeb011461086e578063db4bec4414610899578063e0a80853146108d6578063e985e9c5146108ff578063efbd73f41461093c578063f2fde38b1461096557610251565b8063b071401b1461079a578063b767a098146107c3578063b88d4fde146107ec578063c87b56dd14610815578063d2cab0561461085257610251565b806394354fd0116100fd57806394354fd0146106d457806395d89b41146106ff578063a0712d681461072a578063a22cb46514610746578063a45ba8e71461076f57610251565b806370a0823114610603578063715018a6146106405780637cb64759146106575780637ec4a659146106805780638da5cb5b146106a957610251565b80633ccfd60b116101d2578063518302271161019657806351830227146104ef5780635503a0e81461051a5780635c975abb1461054557806362b99ad4146105705780636352211e1461059b5780636caede3d146105d857610251565b80633ccfd60b1461042057806342842e0e14610437578063438b63001461046057806344a0d68a1461049d5780634fdd43cb146104c657610251565b806316ba10e01161021957806316ba10e01461034f57806316c38b3c1461037857806318160ddd146103a157806323b872dd146103cc5780632eb4a7ab146103f557610251565b806301ffc9a71461025657806306fdde0314610293578063081812fc146102be578063095ea7b3146102fb57806313faede614610324575b600080fd5b34801561026257600080fd5b5061027d60048036038101906102789190613771565b61098e565b60405161028a91906137b9565b60405180910390f35b34801561029f57600080fd5b506102a8610a70565b6040516102b5919061386d565b60405180910390f35b3480156102ca57600080fd5b506102e560048036038101906102e091906138c5565b610b02565b6040516102f29190613933565b60405180910390f35b34801561030757600080fd5b50610322600480360381019061031d919061397a565b610b7e565b005b34801561033057600080fd5b50610339610c82565b60405161034691906139c9565b60405180910390f35b34801561035b57600080fd5b5061037660048036038101906103719190613b19565b610c88565b005b34801561038457600080fd5b5061039f600480360381019061039a9190613b8e565b610d1e565b005b3480156103ad57600080fd5b506103b6610db7565b6040516103c391906139c9565b60405180910390f35b3480156103d857600080fd5b506103f360048036038101906103ee9190613bbb565b610dce565b005b34801561040157600080fd5b5061040a610dde565b6040516104179190613c27565b60405180910390f35b34801561042c57600080fd5b50610435610de4565b005b34801561044357600080fd5b5061045e60048036038101906104599190613bbb565b610fd8565b005b34801561046c57600080fd5b5061048760048036038101906104829190613c42565b610ff8565b6040516104949190613d2d565b60405180910390f35b3480156104a957600080fd5b506104c460048036038101906104bf91906138c5565b61120b565b005b3480156104d257600080fd5b506104ed60048036038101906104e89190613b19565b611291565b005b3480156104fb57600080fd5b50610504611327565b60405161051191906137b9565b60405180910390f35b34801561052657600080fd5b5061052f61133a565b60405161053c919061386d565b60405180910390f35b34801561055157600080fd5b5061055a6113c8565b60405161056791906137b9565b60405180910390f35b34801561057c57600080fd5b506105856113db565b604051610592919061386d565b60405180910390f35b3480156105a757600080fd5b506105c260048036038101906105bd91906138c5565b611469565b6040516105cf9190613933565b60405180910390f35b3480156105e457600080fd5b506105ed61147f565b6040516105fa91906137b9565b60405180910390f35b34801561060f57600080fd5b5061062a60048036038101906106259190613c42565b611492565b60405161063791906139c9565b60405180910390f35b34801561064c57600080fd5b50610655611561565b005b34801561066357600080fd5b5061067e60048036038101906106799190613d7b565b6115e9565b005b34801561068c57600080fd5b506106a760048036038101906106a29190613b19565b61166f565b005b3480156106b557600080fd5b506106be611705565b6040516106cb9190613933565b60405180910390f35b3480156106e057600080fd5b506106e961172f565b6040516106f691906139c9565b60405180910390f35b34801561070b57600080fd5b50610714611735565b604051610721919061386d565b60405180910390f35b610744600480360381019061073f91906138c5565b6117c7565b005b34801561075257600080fd5b5061076d60048036038101906107689190613da8565b611927565b005b34801561077b57600080fd5b50610784611a9e565b604051610791919061386d565b60405180910390f35b3480156107a657600080fd5b506107c160048036038101906107bc91906138c5565b611b2c565b005b3480156107cf57600080fd5b506107ea60048036038101906107e59190613b8e565b611bb2565b005b3480156107f857600080fd5b50610813600480360381019061080e9190613e89565b611c4b565b005b34801561082157600080fd5b5061083c600480360381019061083791906138c5565b611cc3565b604051610849919061386d565b60405180910390f35b61086c60048036038101906108679190613f6c565b611e1b565b005b34801561087a57600080fd5b5061088361212f565b60405161089091906139c9565b60405180910390f35b3480156108a557600080fd5b506108c060048036038101906108bb9190613c42565b612135565b6040516108cd91906137b9565b60405180910390f35b3480156108e257600080fd5b506108fd60048036038101906108f89190613b8e565b612155565b005b34801561090b57600080fd5b5061092660048036038101906109219190613fcc565b6121ee565b60405161093391906137b9565b60405180910390f35b34801561094857600080fd5b50610963600480360381019061095e919061400c565b612282565b005b34801561097157600080fd5b5061098c60048036038101906109879190613c42565b6123b6565b005b60007f80ac58cd000000000000000000000000000000000000000000000000000000007bffffffffffffffffffffffffffffffffffffffffffffffffffffffff1916827bffffffffffffffffffffffffffffffffffffffffffffffffffffffff19161480610a5957507f5b5e139f000000000000000000000000000000000000000000000000000000007bffffffffffffffffffffffffffffffffffffffffffffffffffffffff1916827bffffffffffffffffffffffffffffffffffffffffffffffffffffffff1916145b80610a695750610a68826124ad565b5b9050919050565b606060028054610a7f9061407b565b80601f0160208091040260200160405190810160405280929190818152602001828054610aab9061407b565b8015610af85780601f10610acd57610100808354040283529160200191610af8565b820191906000526020600020905b815481529060010190602001808311610adb57829003601f168201915b5050505050905090565b6000610b0d82612517565b610b43576040517fcf4700e400000000000000000000000000000000000000000000000000000000815260040160405180910390fd5b6006600083815260200190815260200160002060009054906101000a900473ffffffffffffffffffffffffffffffffffffffff169050919050565b6000610b8982611469565b90508073ffffffffffffffffffffffffffffffffffffffff168373ffffffffffffffffffffffffffffffffffffffff1603610bf0576040517f943f7b8c00000000000000000000000000000000000000000000000000000000815260040160405180910390fd5b8073ffffffffffffffffffffffffffffffffffffffff16610c0f612565565b73ffffffffffffffffffffffffffffffffffffffff1614610c7257610c3b81610c36612565565b6121ee565b610c71576040517fcfb3b94200000000000000000000000000000000000000000000000000000000815260040160405180910390fd5b5b610c7d83838361256d565b505050565b600f5481565b610c90612565565b73ffffffffffffffffffffffffffffffffffffffff16610cae611705565b73ffffffffffffffffffffffffffffffffffffffff1614610d04576040517f08c379a0000000000000000000000000000000000000000000000000000000008152600401610cfb906140f8565b60405180910390fd5b80600d9080519060200190610d1a92919061361f565b5050565b610d26612565565b73ffffffffffffffffffffffffffffffffffffffff16610d44611705565b73ffffffffffffffffffffffffffffffffffffffff1614610d9a576040517f08c379a0000000000000000000000000000000000000000000000000000000008152600401610d91906140f8565b60405180910390fd5b80601260006101000a81548160ff02191690831515021790555050565b6000610dc161261f565b6001546000540303905090565b610dd9838383612628565b505050565b600a5481565b610dec612565565b73ffffffffffffffffffffffffffffffffffffffff16610e0a611705565b73ffffffffffffffffffffffffffffffffffffffff1614610e60576040517f08c379a0000000000000000000000000000000000000000000000000000000008152600401610e57906140f8565b60405180910390fd5b600260095403610ea5576040517f08c379a0000000000000000000000000000000000000000000000000000000008152600401610e9c90614164565b60405180910390fd5b6002600981905550600073146fb9c3b2c13ba88c6945a759ebfa95127486f473ffffffffffffffffffffffffffffffffffffffff166064600547610ee991906141b3565b610ef3919061423c565b604051610eff9061429e565b60006040518083038185875af1925050503d8060008114610f3c576040519150601f19603f3d011682016040523d82523d6000602084013e610f41565b606091505b5050905080610f4f57600080fd5b6000610f59611705565b73ffffffffffffffffffffffffffffffffffffffff1647604051610f7c9061429e565b60006040518083038185875af1925050503d8060008114610fb9576040519150601f19603f3d011682016040523d82523d6000602084013e610fbe565b606091505b5050905080610fcc57600080fd5b50506001600981905550565b610ff383838360405180602001604052806000815250611c4b565b505050565b6060600061100583611492565b905060008167ffffffffffffffff811115611023576110226139ee565b5b6040519080825280602002602001820160405280156110515781602001602082028036833780820191505090505b509050600061105e61261f565b90506000805b8482108015611074575060005483105b156111fe576000600460008581526020019081526020016000206040518060600160405290816000820160009054906101000a900473ffffffffffffffffffffffffffffffffffffffff1673ffffffffffffffffffffffffffffffffffffffff1673ffffffffffffffffffffffffffffffffffffffff1681526020016000820160149054906101000a900467ffffffffffffffff1667ffffffffffffffff1667ffffffffffffffff16815260200160008201601c9054906101000a900460ff161515151581525050905080604001516111ea57600073ffffffffffffffffffffffffffffffffffffffff16816000015173ffffffffffffffffffffffffffffffffffffffff161461118757806000015191505b8773ffffffffffffffffffffffffffffffffffffffff168273ffffffffffffffffffffffffffffffffffffffff16036111e957838584815181106111ce576111cd6142b3565b5b60200260200101818152505082806111e5906142e2565b9350505b5b83806111f5906142e2565b94505050611064565b8395505050505050919050565b611213612565565b73ffffffffffffffffffffffffffffffffffffffff16611231611705565b73ffffffffffffffffffffffffffffffffffffffff1614611287576040517f08c379a000000000000000000000000000000000000000000000000000000000815260040161127e906140f8565b60405180910390fd5b80600f8190555050565b611299612565565b73ffffffffffffffffffffffffffffffffffffffff166112b7611705565b73ffffffffffffffffffffffffffffffffffffffff161461130d576040517f08c379a0000000000000000000000000000000000000000000000000000000008152600401611304906140f8565b60405180910390fd5b80600e908051906020019061132392919061361f565b5050565b601260029054906101000a900460ff1681565b600d80546113479061407b565b80601f01602080910402602001604051908101604052809291908181526020018280546113739061407b565b80156113c05780601f10611395576101008083540402835291602001916113c0565b820191906000526020600020905b8154815290600101906020018083116113a357829003601f168201915b505050505081565b601260009054906101000a900460ff1681565b600c80546113e89061407b565b80601f01602080910402602001604051908101604052809291908181526020018280546114149061407b565b80156114615780601f1061143657610100808354040283529160200191611461565b820191906000526020600020905b81548152906001019060200180831161144457829003601f168201915b505050505081565b600061147482612adc565b600001519050919050565b601260019054906101000a900460ff1681565b60008073ffffffffffffffffffffffffffffffffffffffff168273ffffffffffffffffffffffffffffffffffffffff16036114f9576040517f8f4eb60400000000000000000000000000000000000000000000000000000000815260040160405180910390fd5b600560008373ffffffffffffffffffffffffffffffffffffffff1673ffffffffffffffffffffffffffffffffffffffff16815260200190815260200160002060000160009054906101000a900467ffffffffffffffff1667ffffffffffffffff169050919050565b611569612565565b73ffffffffffffffffffffffffffffffffffffffff16611587611705565b73ffffffffffffffffffffffffffffffffffffffff16146115dd576040517f08c379a00000000000000000000000000000000000000000000000000000000081526004016115d4906140f8565b60405180910390fd5b6115e76000612d67565b565b6115f1612565565b73ffffffffffffffffffffffffffffffffffffffff1661160f611705565b73ffffffffffffffffffffffffffffffffffffffff1614611665576040517f08c379a000000000000000000000000000000000000000000000000000000000815260040161165c906140f8565b60405180910390fd5b80600a8190555050565b611677612565565b73ffffffffffffffffffffffffffffffffffffffff16611695611705565b73ffffffffffffffffffffffffffffffffffffffff16146116eb576040517f08c379a00000000000000000000000000000000000000000000000000000000081526004016116e2906140f8565b60405180910390fd5b80600c908051906020019061170192919061361f565b5050565b6000600860009054906101000a900473ffffffffffffffffffffffffffffffffffffffff16905090565b60115481565b6060600380546117449061407b565b80601f01602080910402602001604051908101604052809291908181526020018280546117709061407b565b80156117bd5780601f10611792576101008083540402835291602001916117bd565b820191906000526020600020905b8154815290600101906020018083116117a057829003601f168201915b5050505050905090565b806000811180156117da57506011548111155b611819576040517f08c379a000000000000000000000000000000000000000000000000000000000815260040161181090614376565b60405180910390fd5b60105481611825610db7565b61182f9190614396565b1115611870576040517f08c379a000000000000000000000000000000000000000000000000000000000815260040161186790614438565b60405180910390fd5b8180600f5461187f91906141b3565b3410156118c1576040517f08c379a00000000000000000000000000000000000000000000000000000000081526004016118b8906144a4565b60405180910390fd5b601260009054906101000a900460ff1615611911576040517f08c379a000000000000000000000000000000000000000000000000000000000815260040161190890614510565b60405180910390fd5b61192261191c612565565b84612e2d565b505050565b61192f612565565b73ffffffffffffffffffffffffffffffffffffffff168273ffffffffffffffffffffffffffffffffffffffff1603611993576040517fb06307db00000000000000000000000000000000000000000000000000000000815260040160405180910390fd5b80600760006119a0612565565b73ffffffffffffffffffffffffffffffffffffffff1673ffffffffffffffffffffffffffffffffffffffff16815260200190815260200160002060008473ffffffffffffffffffffffffffffffffffffffff1673ffffffffffffffffffffffffffffffffffffffff16815260200190815260200160002060006101000a81548160ff0219169083151502179055508173ffffffffffffffffffffffffffffffffffffffff16611a4d612565565b73ffffffffffffffffffffffffffffffffffffffff167f17307eab39ab6107e8899845ad3d59bd9653f200f220920489ca2b5937696c3183604051611a9291906137b9565b60405180910390a35050565b600e8054611aab9061407b565b80601f0160208091040260200160405190810160405280929190818152602001828054611ad79061407b565b8015611b245780601f10611af957610100808354040283529160200191611b24565b820191906000526020600020905b815481529060010190602001808311611b0757829003601f168201915b505050505081565b611b34612565565b73ffffffffffffffffffffffffffffffffffffffff16611b52611705565b73ffffffffffffffffffffffffffffffffffffffff1614611ba8576040517f08c379a0000000000000000000000000000000000000000000000000000000008152600401611b9f906140f8565b60405180910390fd5b8060118190555050565b611bba612565565b73ffffffffffffffffffffffffffffffffffffffff16611bd8611705565b73ffffffffffffffffffffffffffffffffffffffff1614611c2e576040517f08c379a0000000000000000000000000000000000000000000000000000000008152600401611c25906140f8565b60405180910390fd5b80601260016101000a81548160ff02191690831515021790555050565b611c56848484612628565b611c758373ffffffffffffffffffffffffffffffffffffffff16612e4b565b15611cbd57611c8684848484612e6e565b611cbc576040517fd1a57ed600000000000000000000000000000000000000000000000000000000815260040160405180910390fd5b5b50505050565b6060611cce82612517565b611d0d576040517f08c379a0000000000000000000000000000000000000000000000000000000008152600401611d04906145a2565b60405180910390fd5b60001515601260029054906101000a900460ff16151503611dba57600e8054611d359061407b565b80601f0160208091040260200160405190810160405280929190818152602001828054611d619061407b565b8015611dae5780601f10611d8357610100808354040283529160200191611dae565b820191906000526020600020905b815481529060010190602001808311611d9157829003601f168201915b50505050509050611e16565b6000611dc4612fbe565b90506000815111611de45760405180602001604052806000815250611e12565b80611dee84613050565b600d604051602001611e0293929190614692565b6040516020818303038152906040525b9150505b919050565b82600081118015611e2e57506011548111155b611e6d576040517f08c379a0000000000000000000000000000000000000000000000000000000008152600401611e6490614376565b60405180910390fd5b60105481611e79610db7565b611e839190614396565b1115611ec4576040517f08c379a0000000000000000000000000000000000000000000000000000000008152600401611ebb90614438565b60405180910390fd5b8380600f54611ed391906141b3565b341015611f15576040517f08c379a0000000000000000000000000000000000000000000000000000000008152600401611f0c906144a4565b60405180910390fd5b601260019054906101000a900460ff16611f64576040517f08c379a0000000000000000000000000000000000000000000000000000000008152600401611f5b90614735565b60405180910390fd5b600b6000611f70612565565b73ffffffffffffffffffffffffffffffffffffffff1673ffffffffffffffffffffffffffffffffffffffff16815260200190815260200160002060009054906101000a900460ff1615611ff8576040517f08c379a0000000000000000000000000000000000000000000000000000000008152600401611fef906147a1565b60405180910390fd5b6000612002612565565b6040516020016120129190614809565b604051602081830303815290604052805190602001209050612078858580806020026020016040519081016040528093929190818152602001838360200280828437600081840152601f19601f82011690508083019250505050505050600a54836131b0565b6120b7576040517f08c379a00000000000000000000000000000000000000000000000000000000081526004016120ae90614870565b60405180910390fd5b6001600b60006120c5612565565b73ffffffffffffffffffffffffffffffffffffffff1673ffffffffffffffffffffffffffffffffffffffff16815260200190815260200160002060006101000a81548160ff021916908315150217905550612127612121612565565b87612e2d565b505050505050565b60105481565b600b6020528060005260406000206000915054906101000a900460ff1681565b61215d612565565b73ffffffffffffffffffffffffffffffffffffffff1661217b611705565b73ffffffffffffffffffffffffffffffffffffffff16146121d1576040517f08c379a00000000000000000000000000000000000000000000000000000000081526004016121c8906140f8565b60405180910390fd5b80601260026101000a81548160ff02191690831515021790555050565b6000600760008473ffffffffffffffffffffffffffffffffffffffff1673ffffffffffffffffffffffffffffffffffffffff16815260200190815260200160002060008373ffffffffffffffffffffffffffffffffffffffff1673ffffffffffffffffffffffffffffffffffffffff16815260200190815260200160002060009054906101000a900460ff16905092915050565b8160008111801561229557506011548111155b6122d4576040517f08c379a00000000000000000000000000000000000000000000000000000000081526004016122cb90614376565b60405180910390fd5b601054816122e0610db7565b6122ea9190614396565b111561232b576040517f08c379a000000000000000000000000000000000000000000000000000000000815260040161232290614438565b60405180910390fd5b612333612565565b73ffffffffffffffffffffffffffffffffffffffff16612351611705565b73ffffffffffffffffffffffffffffffffffffffff16146123a7576040517f08c379a000000000000000000000000000000000000000000000000000000000815260040161239e906140f8565b60405180910390fd5b6123b18284612e2d565b505050565b6123be612565565b73ffffffffffffffffffffffffffffffffffffffff166123dc611705565b73ffffffffffffffffffffffffffffffffffffffff1614612432576040517f08c379a0000000000000000000000000000000000000000000000000000000008152600401612429906140f8565b60405180910390fd5b600073ffffffffffffffffffffffffffffffffffffffff168173ffffffffffffffffffffffffffffffffffffffff16036124a1576040517f08c379a000000000000000000000000000000000000000000000000000000000815260040161249890614902565b60405180910390fd5b6124aa81612d67565b50565b60007f01ffc9a7000000000000000000000000000000000000000000000000000000007bffffffffffffffffffffffffffffffffffffffffffffffffffffffff1916827bffffffffffffffffffffffffffffffffffffffffffffffffffffffff1916149050919050565b60008161252261261f565b11158015612531575060005482105b801561255e575060046000838152602001908152602001600020600001601c9054906101000a900460ff16155b9050919050565b600033905090565b826006600084815260200190815260200160002060006101000a81548173ffffffffffffffffffffffffffffffffffffffff021916908373ffffffffffffffffffffffffffffffffffffffff160217905550818373ffffffffffffffffffffffffffffffffffffffff168273ffffffffffffffffffffffffffffffffffffffff167f8c5be1e5ebec7d5bd14f71427d1e84f3dd0314c0f7b2291e5b200ac8c7c3b92560405160405180910390a4505050565b60006001905090565b600061263382612adc565b90508373ffffffffffffffffffffffffffffffffffffffff16816000015173ffffffffffffffffffffffffffffffffffffffff161461269e576040517fa114810000000000000000000000000000000000000000000000000000000000815260040160405180910390fd5b60008473ffffffffffffffffffffffffffffffffffffffff166126bf612565565b73ffffffffffffffffffffffffffffffffffffffff1614806126ee57506126ed856126e8612565565b6121ee565b5b8061273357506126fc612565565b73ffffffffffffffffffffffffffffffffffffffff1661271b84610b02565b73ffffffffffffffffffffffffffffffffffffffff16145b90508061276c576040517f59c896be00000000000000000000000000000000000000000000000000000000815260040160405180910390fd5b600073ffffffffffffffffffffffffffffffffffffffff168473ffffffffffffffffffffffffffffffffffffffff16036127d2576040517fea553b3400000000000000000000000000000000000000000000000000000000815260040160405180910390fd5b6127df85858560016131c7565b6127eb6000848761256d565b6001600560008773ffffffffffffffffffffffffffffffffffffffff1673ffffffffffffffffffffffffffffffffffffffff16815260200190815260200160002060000160008282829054906101000a900467ffffffffffffffff160392506101000a81548167ffffffffffffffff021916908367ffffffffffffffff1602179055506001600560008673ffffffffffffffffffffffffffffffffffffffff1673ffffffffffffffffffffffffffffffffffffffff16815260200190815260200160002060000160008282829054906101000a900467ffffffffffffffff160192506101000a81548167ffffffffffffffff021916908367ffffffffffffffff1602179055506000600460008581526020019081526020016000209050848160000160006101000a81548173ffffffffffffffffffffffffffffffffffffffff021916908373ffffffffffffffffffffffffffffffffffffffff160217905550428160000160146101000a81548167ffffffffffffffff021916908367ffffffffffffffff16021790555060006001850190506000600460008381526020019081526020016000209050600073ffffffffffffffffffffffffffffffffffffffff168160000160009054906101000a900473ffffffffffffffffffffffffffffffffffffffff1673ffffffffffffffffffffffffffffffffffffffff1603612a6a576000548214612a6957878160000160006101000a81548173ffffffffffffffffffffffffffffffffffffffff021916908373ffffffffffffffffffffffffffffffffffffffff16021790555084602001518160000160146101000a81548167ffffffffffffffff021916908367ffffffffffffffff1602179055505b5b505050828473ffffffffffffffffffffffffffffffffffffffff168673ffffffffffffffffffffffffffffffffffffffff167fddf252ad1be2c89b69c2b068fc378daa952ba7f163c4a11628f55a4df523b3ef60405160405180910390a4612ad585858560016131cd565b5050505050565b612ae46136a5565b600082905080612af261261f565b11612d3057600054811015612d2f576000600460008381526020019081526020016000206040518060600160405290816000820160009054906101000a900473ffffffffffffffffffffffffffffffffffffffff1673ffffffffffffffffffffffffffffffffffffffff1673ffffffffffffffffffffffffffffffffffffffff1681526020016000820160149054906101000a900467ffffffffffffffff1667ffffffffffffffff1667ffffffffffffffff16815260200160008201601c9054906101000a900460ff16151515158152505090508060400151612d2d57600073ffffffffffffffffffffffffffffffffffffffff16816000015173ffffffffffffffffffffffffffffffffffffffff1614612c11578092505050612d62565b5b600115612d2c57818060019003925050600460008381526020019081526020016000206040518060600160405290816000820160009054906101000a900473ffffffffffffffffffffffffffffffffffffffff1673ffffffffffffffffffffffffffffffffffffffff1673ffffffffffffffffffffffffffffffffffffffff1681526020016000820160149054906101000a900467ffffffffffffffff1667ffffffffffffffff1667ffffffffffffffff16815260200160008201601c9054906101000a900460ff1615151515815250509050600073ffffffffffffffffffffffffffffffffffffffff16816000015173ffffffffffffffffffffffffffffffffffffffff1614612d27578092505050612d62565b612c12565b5b505b5b6040517fdf2d9b4200000000000000000000000000000000000000000000000000000000815260040160405180910390fd5b919050565b6000600860009054906101000a900473ffffffffffffffffffffffffffffffffffffffff16905081600860006101000a81548173ffffffffffffffffffffffffffffffffffffffff021916908373ffffffffffffffffffffffffffffffffffffffff1602179055508173ffffffffffffffffffffffffffffffffffffffff168173ffffffffffffffffffffffffffffffffffffffff167f8be0079c531659141344cd1fd0a4f28419497f9722a3daafe3b4186f6b6457e060405160405180910390a35050565b612e478282604051806020016040528060008152506131d3565b5050565b6000808273ffffffffffffffffffffffffffffffffffffffff163b119050919050565b60008373ffffffffffffffffffffffffffffffffffffffff1663150b7a02612e94612565565b8786866040518563ffffffff1660e01b8152600401612eb69493929190614977565b6020604051808303816000875af1925050508015612ef257506040513d601f19601f82011682018060405250810190612eef91906149d8565b60015b612f6b573d8060008114612f22576040519150601f19603f3d011682016040523d82523d6000602084013e612f27565b606091505b506000815103612f63576040517fd1a57ed600000000000000000000000000000000000000000000000000000000815260040160405180910390fd5b805181602001fd5b63150b7a0260e01b7bffffffffffffffffffffffffffffffffffffffffffffffffffffffff1916817bffffffffffffffffffffffffffffffffffffffffffffffffffffffff191614915050949350505050565b6060600c8054612fcd9061407b565b80601f0160208091040260200160405190810160405280929190818152602001828054612ff99061407b565b80156130465780601f1061301b57610100808354040283529160200191613046565b820191906000526020600020905b81548152906001019060200180831161302957829003601f168201915b5050505050905090565b606060008203613097576040518060400160405280600181526020017f300000000000000000000000000000000000000000000000000000000000000081525090506131ab565b600082905060005b600082146130c95780806130b2906142e2565b915050600a826130c2919061423c565b915061309f565b60008167ffffffffffffffff8111156130e5576130e46139ee565b5b6040519080825280601f01601f1916602001820160405280156131175781602001600182028036833780820191505090505b5090505b600085146131a4576001826131309190614a05565b9150600a8561313f9190614a39565b603061314b9190614396565b60f81b818381518110613161576131606142b3565b5b60200101907effffffffffffffffffffffffffffffffffffffffffffffffffffffffffffff1916908160001a905350600a8561319d919061423c565b945061311b565b8093505050505b919050565b6000826131bd8584613593565b1490509392505050565b50505050565b50505050565b600080549050600073ffffffffffffffffffffffffffffffffffffffff168473ffffffffffffffffffffffffffffffffffffffff160361323f576040517f2e07630000000000000000000000000000000000000000000000000000000000815260040160405180910390fd5b60008303613279576040517fb562e8dd00000000000000000000000000000000000000000000000000000000815260040160405180910390fd5b61328660008583866131c7565b82600560008673ffffffffffffffffffffffffffffffffffffffff1673ffffffffffffffffffffffffffffffffffffffff16815260200190815260200160002060000160008282829054906101000a900467ffffffffffffffff160192506101000a81548167ffffffffffffffff021916908367ffffffffffffffff16021790555082600560008673ffffffffffffffffffffffffffffffffffffffff1673ffffffffffffffffffffffffffffffffffffffff16815260200190815260200160002060000160088282829054906101000a900467ffffffffffffffff160192506101000a81548167ffffffffffffffff021916908367ffffffffffffffff160217905550836004600083815260200190815260200160002060000160006101000a81548173ffffffffffffffffffffffffffffffffffffffff021916908373ffffffffffffffffffffffffffffffffffffffff160217905550426004600083815260200190815260200160002060000160146101000a81548167ffffffffffffffff021916908367ffffffffffffffff1602179055506000819050600084820190506134478673ffffffffffffffffffffffffffffffffffffffff16612e4b565b1561350c575b818673ffffffffffffffffffffffffffffffffffffffff16600073ffffffffffffffffffffffffffffffffffffffff167fddf252ad1be2c89b69c2b068fc378daa952ba7f163c4a11628f55a4df523b3ef60405160405180910390a46134bc6000878480600101955087612e6e565b6134f2576040517fd1a57ed600000000000000000000000000000000000000000000000000000000815260040160405180910390fd5b80821061344d57826000541461350757600080fd5b613577565b5b818060010192508673ffffffffffffffffffffffffffffffffffffffff16600073ffffffffffffffffffffffffffffffffffffffff167fddf252ad1be2c89b69c2b068fc378daa952ba7f163c4a11628f55a4df523b3ef60405160405180910390a480821061350d575b81600081905550505061358d60008583866131cd565b50505050565b60008082905060005b84518110156135fd5760008582815181106135ba576135b96142b3565b5b602002602001015190508083116135dc576135d58382613608565b92506135e9565b6135e68184613608565b92505b5080806135f5906142e2565b91505061359c565b508091505092915050565b600082600052816020526040600020905092915050565b82805461362b9061407b565b90600052602060002090601f01602090048101928261364d5760008555613694565b82601f1061366657805160ff1916838001178555613694565b82800160010185558215613694579182015b82811115613693578251825591602001919060010190613678565b5b5090506136a191906136e8565b5090565b6040518060600160405280600073ffffffffffffffffffffffffffffffffffffffff168152602001600067ffffffffffffffff1681526020016000151581525090565b5b808211156137015760008160009055506001016136e9565b5090565b6000604051905090565b600080fd5b600080fd5b60007fffffffff0000000000000000000000000000000000000000000000000000000082169050919050565b61374e81613719565b811461375957600080fd5b50565b60008135905061376b81613745565b92915050565b6000602082840312156137875761378661370f565b5b60006137958482850161375c565b91505092915050565b60008115159050919050565b6137b38161379e565b82525050565b60006020820190506137ce60008301846137aa565b92915050565b600081519050919050565b600082825260208201905092915050565b60005b8381101561380e5780820151818401526020810190506137f3565b8381111561381d576000848401525b50505050565b6000601f19601f8301169050919050565b600061383f826137d4565b61384981856137df565b93506138598185602086016137f0565b61386281613823565b840191505092915050565b600060208201905081810360008301526138878184613834565b905092915050565b6000819050919050565b6138a28161388f565b81146138ad57600080fd5b50565b6000813590506138bf81613899565b92915050565b6000602082840312156138db576138da61370f565b5b60006138e9848285016138b0565b91505092915050565b600073ffffffffffffffffffffffffffffffffffffffff82169050919050565b600061391d826138f2565b9050919050565b61392d81613912565b82525050565b60006020820190506139486000830184613924565b92915050565b61395781613912565b811461396257600080fd5b50565b6000813590506139748161394e565b92915050565b600080604083850312156139915761399061370f565b5b600061399f85828601613965565b92505060206139b0858286016138b0565b9150509250929050565b6139c38161388f565b82525050565b60006020820190506139de60008301846139ba565b92915050565b600080fd5b600080fd5b7f4e487b7100000000000000000000000000000000000000000000000000000000600052604160045260246000fd5b613a2682613823565b810181811067ffffffffffffffff82111715613a4557613a446139ee565b5b80604052505050565b6000613a58613705565b9050613a648282613a1d565b919050565b600067ffffffffffffffff821115613a8457613a836139ee565b5b613a8d82613823565b9050602081019050919050565b82818337600083830152505050565b6000613abc613ab784613a69565b613a4e565b905082815260208101848484011115613ad857613ad76139e9565b5b613ae3848285613a9a565b509392505050565b600082601f830112613b0057613aff6139e4565b5b8135613b10848260208601613aa9565b91505092915050565b600060208284031215613b2f57613b2e61370f565b5b600082013567ffffffffffffffff811115613b4d57613b4c613714565b5b613b5984828501613aeb565b91505092915050565b613b6b8161379e565b8114613b7657600080fd5b50565b600081359050613b8881613b62565b92915050565b600060208284031215613ba457613ba361370f565b5b6000613bb284828501613b79565b91505092915050565b600080600060608486031215613bd457613bd361370f565b5b6000613be286828701613965565b9350506020613bf386828701613965565b9250506040613c04868287016138b0565b9150509250925092565b6000819050919050565b613c2181613c0e565b82525050565b6000602082019050613c3c6000830184613c18565b92915050565b600060208284031215613c5857613c5761370f565b5b6000613c6684828501613965565b91505092915050565b600081519050919050565b600082825260208201905092915050565b6000819050602082019050919050565b613ca48161388f565b82525050565b6000613cb68383613c9b565b60208301905092915050565b6000602082019050919050565b6000613cda82613c6f565b613ce48185613c7a565b9350613cef83613c8b565b8060005b83811015613d20578151613d078882613caa565b9750613d1283613cc2565b925050600181019050613cf3565b5085935050505092915050565b60006020820190508181036000830152613d478184613ccf565b905092915050565b613d5881613c0e565b8114613d6357600080fd5b50565b600081359050613d7581613d4f565b92915050565b600060208284031215613d9157613d9061370f565b5b6000613d9f84828501613d66565b91505092915050565b60008060408385031215613dbf57613dbe61370f565b5b6000613dcd85828601613965565b9250506020613dde85828601613b79565b9150509250929050565b600067ffffffffffffffff821115613e0357613e026139ee565b5b613e0c82613823565b9050602081019050919050565b6000613e2c613e2784613de8565b613a4e565b905082815260208101848484011115613e4857613e476139e9565b5b613e53848285613a9a565b509392505050565b600082601f830112613e7057613e6f6139e4565b5b8135613e80848260208601613e19565b91505092915050565b60008060008060808587031215613ea357613ea261370f565b5b6000613eb187828801613965565b9450506020613ec287828801613965565b9350506040613ed3878288016138b0565b925050606085013567ffffffffffffffff811115613ef457613ef3613714565b5b613f0087828801613e5b565b91505092959194509250565b600080fd5b600080fd5b60008083601f840112613f2c57613f2b6139e4565b5b8235905067ffffffffffffffff811115613f4957613f48613f0c565b5b602083019150836020820283011115613f6557613f64613f11565b5b9250929050565b600080600060408486031215613f8557613f8461370f565b5b6000613f93868287016138b0565b935050602084013567ffffffffffffffff811115613fb457613fb3613714565b5b613fc086828701613f16565b92509250509250925092565b60008060408385031215613fe357613fe261370f565b5b6000613ff185828601613965565b925050602061400285828601613965565b9150509250929050565b600080604083850312156140235761402261370f565b5b6000614031858286016138b0565b925050602061404285828601613965565b9150509250929050565b7f4e487b7100000000000000000000000000000000000000000000000000000000600052602260045260246000fd5b6000600282049050600182168061409357607f821691505b6020821081036140a6576140a561404c565b5b50919050565b7f4f776e61626c653a2063616c6c6572206973206e6f7420746865206f776e6572600082015250565b60006140e26020836137df565b91506140ed826140ac565b602082019050919050565b60006020820190508181036000830152614111816140d5565b9050919050565b7f5265656e7472616e637947756172643a207265656e7472616e742063616c6c00600082015250565b600061414e601f836137df565b915061415982614118565b602082019050919050565b6000602082019050818103600083015261417d81614141565b9050919050565b7f4e487b7100000000000000000000000000000000000000000000000000000000600052601160045260246000fd5b60006141be8261388f565b91506141c98361388f565b9250817fffffffffffffffffffffffffffffffffffffffffffffffffffffffffffffffff048311821515161561420257614201614184565b5b828202905092915050565b7f4e487b7100000000000000000000000000000000000000000000000000000000600052601260045260246000fd5b60006142478261388f565b91506142528361388f565b9250826142625761426161420d565b5b828204905092915050565b600081905092915050565b50565b600061428860008361426d565b915061429382614278565b600082019050919050565b60006142a98261427b565b9150819050919050565b7f4e487b7100000000000000000000000000000000000000000000000000000000600052603260045260246000fd5b60006142ed8261388f565b91507fffffffffffffffffffffffffffffffffffffffffffffffffffffffffffffffff820361431f5761431e614184565b5b600182019050919050565b7f496e76616c6964206d696e7420616d6f756e7421000000000000000000000000600082015250565b60006143606014836137df565b915061436b8261432a565b602082019050919050565b6000602082019050818103600083015261438f81614353565b9050919050565b60006143a18261388f565b91506143ac8361388f565b9250827fffffffffffffffffffffffffffffffffffffffffffffffffffffffffffffffff038211156143e1576143e0614184565b5b828201905092915050565b7f4d617820737570706c7920657863656564656421000000000000000000000000600082015250565b60006144226014836137df565b915061442d826143ec565b602082019050919050565b6000602082019050818103600083015261445181614415565b9050919050565b7f496e73756666696369656e742066756e64732100000000000000000000000000600082015250565b600061448e6013836137df565b915061449982614458565b602082019050919050565b600060208201905081810360008301526144bd81614481565b9050919050565b7f54686520636f6e74726163742069732070617573656421000000000000000000600082015250565b60006144fa6017836137df565b9150614505826144c4565b602082019050919050565b60006020820190508181036000830152614529816144ed565b9050919050565b7f4552433732314d657461646174613a2055524920717565727920666f72206e6f60008201527f6e6578697374656e7420746f6b656e0000000000000000000000000000000000602082015250565b600061458c602f836137df565b915061459782614530565b604082019050919050565b600060208201905081810360008301526145bb8161457f565b9050919050565b600081905092915050565b60006145d8826137d4565b6145e281856145c2565b93506145f28185602086016137f0565b80840191505092915050565b60008190508160005260206000209050919050565b600081546146208161407b565b61462a81866145c2565b94506001821660008114614645576001811461465657614689565b60ff19831686528186019350614689565b61465f856145fe565b60005b8381101561468157815481890152600182019150602081019050614662565b838801955050505b50505092915050565b600061469e82866145cd565b91506146aa82856145cd565b91506146b68284614613565b9150819050949350505050565b7f5468652077686974656c6973742073616c65206973206e6f7420656e61626c6560008201527f6421000000000000000000000000000000000000000000000000000000000000602082015250565b600061471f6022836137df565b915061472a826146c3565b604082019050919050565b6000602082019050818103600083015261474e81614712565b9050919050565b7f4164647265737320616c726561647920636c61696d6564210000000000000000600082015250565b600061478b6018836137df565b915061479682614755565b602082019050919050565b600060208201905081810360008301526147ba8161477e565b9050919050565b60008160601b9050919050565b60006147d9826147c1565b9050919050565b60006147eb826147ce565b9050919050565b6148036147fe82613912565b6147e0565b82525050565b600061481582846147f2565b60148201915081905092915050565b7f496e76616c69642070726f6f6621000000000000000000000000000000000000600082015250565b600061485a600e836137df565b915061486582614824565b602082019050919050565b600060208201905081810360008301526148898161484d565b9050919050565b7f4f776e61626c653a206e6577206f776e657220697320746865207a65726f206160008201527f6464726573730000000000000000000000000000000000000000000000000000602082015250565b60006148ec6026836137df565b91506148f782614890565b604082019050919050565b6000602082019050818103600083015261491b816148df565b9050919050565b600081519050919050565b600082825260208201905092915050565b600061494982614922565b614953818561492d565b93506149638185602086016137f0565b61496c81613823565b840191505092915050565b600060808201905061498c6000830187613924565b6149996020830186613924565b6149a660408301856139ba565b81810360608301526149b8818461493e565b905095945050505050565b6000815190506149d281613745565b92915050565b6000602082840312156149ee576149ed61370f565b5b60006149fc848285016149c3565b91505092915050565b6000614a108261388f565b9150614a1b8361388f565b925082821015614a2e57614a2d614184565b5b828203905092915050565b6000614a448261388f565b9150614a4f8361388f565b925082614a5f57614a5e61420d565b5b82820690509291505056fea2646970667358221220c644a54e1dbb2bccfbc8617873ce3afeb707c410e902b9ccb896ab3c5e8d1b5564736f6c634300080d0033",
  "immutableReferences": {},
  "source": "// SPDX-License-Identifier: MIT\n\npragma solidity >=0.8.9 <0.9.0;\n\nimport \"erc721a/contracts/ERC721A.sol\";\nimport \"@openzeppelin/contracts/access/Ownable.sol\";\nimport \"@openzeppelin/contracts/utils/cryptography/MerkleProof.sol\";\nimport \"@openzeppelin/contracts/security/ReentrancyGuard.sol\";\n\ncontract NFT is ERC721A, Ownable, ReentrancyGuard {\n    using Strings for uint256;\n\n    bytes32 public merkleRoot;\n    mapping(address => bool) public whitelistClaimed;\n\n    string public uriPrefix = \"\";\n    string public uriSuffix = \"\";\n    string public hiddenMetadataUri;\n\n    uint256 public cost;\n    uint256 public maxSupply;\n    uint256 public maxMintAmountPerTx;\n\n    bool public paused = true;\n    bool public whitelistMintEnabled = false;\n    bool public revealed = false;\n\n    constructor(\n        string memory _tokenName,\n        string memory _tokenSymbol,\n        uint256 _cost,\n        uint256 _maxSupply,\n        uint256 _maxMintAmountPerTx,\n        string memory _hiddenMetadataUri\n    ) ERC721A(_tokenName, _tokenSymbol) {\n        setCost(_cost);\n        maxSupply = _maxSupply;\n        setMaxMintAmountPerTx(_maxMintAmountPerTx);\n        setHiddenMetadataUri(_hiddenMetadataUri);\n    }\n\n    modifier mintCompliance(uint256 _mintAmount) {\n        require(\n            _mintAmount > 0 && _mintAmount <= maxMintAmountPerTx,\n            \"Invalid mint amount!\"\n        );\n        require(\n            totalSupply() + _mintAmount <= maxSupply,\n            \"Max supply exceeded!\"\n        );\n        _;\n    }\n\n    modifier mintPriceCompliance(uint256 _mintAmount) {\n        require(msg.value >= cost * _mintAmount, \"Insufficient funds!\");\n        _;\n    }\n\n    function whitelistMint(uint256 _mintAmount, bytes32[] calldata _merkleProof)\n        public\n        payable\n        mintCompliance(_mintAmount)\n        mintPriceCompliance(_mintAmount)\n    {\n        // Verify whitelist requirements\n        require(whitelistMintEnabled, \"The whitelist sale is not enabled!\");\n        require(!whitelistClaimed[_msgSender()], \"Address already claimed!\");\n        bytes32 leaf = keccak256(abi.encodePacked(_msgSender()));\n        require(\n            MerkleProof.verify(_merkleProof, merkleRoot, leaf),\n            \"Invalid proof!\"\n        );\n\n        whitelistClaimed[_msgSender()] = true;\n        _safeMint(_msgSender(), _mintAmount);\n    }\n\n    function mint(uint256 _mintAmount)\n        public\n        payable\n        mintCompliance(_mintAmount)\n        mintPriceCompliance(_mintAmount)\n    {\n        require(!paused, \"The contract is paused!\");\n\n        _safeMint(_msgSender(), _mintAmount);\n    }\n\n    function mintForAddress(uint256 _mintAmount, address _receiver)\n        public\n        mintCompliance(_mintAmount)\n        onlyOwner\n    {\n        _safeMint(_receiver, _mintAmount);\n    }\n\n    function walletOfOwner(address _owner)\n        public\n        view\n        returns (uint256[] memory)\n    {\n        uint256 ownerTokenCount = balanceOf(_owner);\n        uint256[] memory ownedTokenIds = new uint256[](ownerTokenCount);\n        uint256 currentTokenId = _startTokenId();\n        uint256 ownedTokenIndex = 0;\n        address latestOwnerAddress;\n\n        while (\n            ownedTokenIndex < ownerTokenCount && currentTokenId < _currentIndex\n        ) {\n            TokenOwnership memory ownership = _ownerships[currentTokenId];\n\n            if (!ownership.burned) {\n                if (ownership.addr != address(0)) {\n                    latestOwnerAddress = ownership.addr;\n                }\n\n                if (latestOwnerAddress == _owner) {\n                    ownedTokenIds[ownedTokenIndex] = currentTokenId;\n\n                    ownedTokenIndex++;\n                }\n            }\n\n            currentTokenId++;\n        }\n\n        return ownedTokenIds;\n    }\n\n    function _startTokenId() internal view virtual override returns (uint256) {\n        return 1;\n    }\n\n    function tokenURI(uint256 _tokenId)\n        public\n        view\n        virtual\n        override\n        returns (string memory)\n    {\n        require(\n            _exists(_tokenId),\n            \"ERC721Metadata: URI query for nonexistent token\"\n        );\n\n        if (revealed == false) {\n            return hiddenMetadataUri;\n        }\n\n        string memory currentBaseURI = _baseURI();\n        return\n            bytes(currentBaseURI).length > 0\n                ? string(\n                    abi.encodePacked(\n                        currentBaseURI,\n                        _tokenId.toString(),\n                        uriSuffix\n                    )\n                )\n                : \"\";\n    }\n\n    function setRevealed(bool _state) public onlyOwner {\n        revealed = _state;\n    }\n\n    function setCost(uint256 _cost) public onlyOwner {\n        cost = _cost;\n    }\n\n    function setMaxMintAmountPerTx(uint256 _maxMintAmountPerTx)\n        public\n        onlyOwner\n    {\n        maxMintAmountPerTx = _maxMintAmountPerTx;\n    }\n\n    function setHiddenMetadataUri(string memory _hiddenMetadataUri)\n        public\n        onlyOwner\n    {\n        hiddenMetadataUri = _hiddenMetadataUri;\n    }\n\n    function setUriPrefix(string memory _uriPrefix) public onlyOwner {\n        uriPrefix = _uriPrefix;\n    }\n\n    function setUriSuffix(string memory _uriSuffix) public onlyOwner {\n        uriSuffix = _uriSuffix;\n    }\n\n    function setPaused(bool _state) public onlyOwner {\n        paused = _state;\n    }\n\n    function setMerkleRoot(bytes32 _merkleRoot) public onlyOwner {\n        merkleRoot = _merkleRoot;\n    }\n\n    function setWhitelistMintEnabled(bool _state) public onlyOwner {\n        whitelistMintEnabled = _state;\n    }\n\n    function withdraw() public onlyOwner nonReentrant {\n        // This will pay HashLips Lab Team 5% of the initial sale.\n        // By leaving the following lines as they are you will contribute to the\n        // development of tools like this and many others.\n        // =============================================================================\n        (bool hs, ) = payable(0x146FB9c3b2C13BA88c6945A759EbFa95127486F4).call{\n            value: (address(this).balance * 5) / 100\n        }(\"\");\n        require(hs);\n        // =============================================================================\n\n        // This will transfer the remaining contract balance to the owner.\n        // Do not remove this otherwise you will not be able to withdraw the funds.\n        // =============================================================================\n        (bool os, ) = payable(owner()).call{value: address(this).balance}(\"\");\n        require(os);\n        // =============================================================================\n    }\n\n    function _baseURI() internal view virtual override returns (string memory) {\n        return uriPrefix;\n    }\n}\n",
  "sourcePath": "/Users/frank/Documents/Developer/Blockchain/nft-boilerplate/contracts/NFT.sol",
  "compiler": {
    "name": "solc",
    "version": "0.8.13+commit.abaa5c0e.Emscripten.clang"
  },
  "schemaVersion": "3.4.7",
  "updatedAt": "2022-05-08T14:59:30.291Z",
  "devdoc": {
    "kind": "dev",
    "methods": {
      "approve(address,uint256)": {
        "details": "See {IERC721-approve}."
      },
      "balanceOf(address)": {
        "details": "See {IERC721-balanceOf}."
      },
      "getApproved(uint256)": {
        "details": "See {IERC721-getApproved}."
      },
      "isApprovedForAll(address,address)": {
        "details": "See {IERC721-isApprovedForAll}."
      },
      "name()": {
        "details": "See {IERC721Metadata-name}."
      },
      "owner()": {
        "details": "Returns the address of the current owner."
      },
      "ownerOf(uint256)": {
        "details": "See {IERC721-ownerOf}."
      },
      "renounceOwnership()": {
        "details": "Leaves the contract without owner. It will not be possible to call `onlyOwner` functions anymore. Can only be called by the current owner. NOTE: Renouncing ownership will leave the contract without an owner, thereby removing any functionality that is only available to the owner."
      },
      "safeTransferFrom(address,address,uint256)": {
        "details": "See {IERC721-safeTransferFrom}."
      },
      "safeTransferFrom(address,address,uint256,bytes)": {
        "details": "See {IERC721-safeTransferFrom}."
      },
      "setApprovalForAll(address,bool)": {
        "details": "See {IERC721-setApprovalForAll}."
      },
      "supportsInterface(bytes4)": {
        "details": "See {IERC165-supportsInterface}."
      },
      "symbol()": {
        "details": "See {IERC721Metadata-symbol}."
      },
      "totalSupply()": {
        "details": "Burned tokens are calculated here, use _totalMinted() if you want to count just minted tokens."
      },
      "transferFrom(address,address,uint256)": {
        "details": "See {IERC721-transferFrom}."
      },
      "transferOwnership(address)": {
        "details": "Transfers ownership of the contract to a new account (`newOwner`). Can only be called by the current owner."
      }
    },
    "version": 1
  },
  "userdoc": {
    "errors": {
      "ApprovalCallerNotOwnerNorApproved()": [
        {
          "notice": "The caller must own the token or be an approved operator."
        }
      ],
      "ApprovalQueryForNonexistentToken()": [
        {
          "notice": "The token does not exist."
        }
      ],
      "ApprovalToCurrentOwner()": [
        {
          "notice": "The caller cannot approve to the current owner."
        }
      ],
      "ApproveToCaller()": [
        {
          "notice": "The caller cannot approve to their own address."
        }
      ],
      "BalanceQueryForZeroAddress()": [
        {
          "notice": "Cannot query the balance for the zero address."
        }
      ],
      "MintToZeroAddress()": [
        {
          "notice": "Cannot mint to the zero address."
        }
      ],
      "MintZeroQuantity()": [
        {
          "notice": "The quantity of tokens minted must be more than zero."
        }
      ],
      "OwnerQueryForNonexistentToken()": [
        {
          "notice": "The token does not exist."
        }
      ],
      "TransferCallerNotOwnerNorApproved()": [
        {
          "notice": "The caller must own the token or be an approved operator."
        }
      ],
      "TransferFromIncorrectOwner()": [
        {
          "notice": "The token must be owned by `from`."
        }
      ],
      "TransferToNonERC721ReceiverImplementer()": [
        {
          "notice": "Cannot safely transfer to a contract that does not implement the ERC721Receiver interface."
        }
      ],
      "TransferToZeroAddress()": [
        {
          "notice": "Cannot transfer to the zero address."
        }
      ],
      "URIQueryForNonexistentToken()": [
        {
          "notice": "The token does not exist."
        }
      ]
    },
    "kind": "user",
    "methods": {},
    "version": 1
  }
}